:020000040000fa
:100000000200d2021003000000000002100b0000ea
:10001000000000021013000000000002101b00008e
:10002000000000021023000000000002102b00005e
:10003000000000021033000000000002103b00002e
:10004000000000021043000000000002104b0000fe
:10005000000000021053000000000002105b0000ce
:10006000000000021063000000000002106b00009e
:10007000000000021073000000000002107b00006e
:10008000000000021083000000000002108b00003e
:10009000000000020882e4900003784a7909800297
:1000a000f0a3d8fcd9fa7a4c7b089000e478077961
:1000b000018015e493a3ad82ae838a828b83f0a383
:1000c000aa82ab838d828e83d8e9d9e712043d12d0
:1000d00008a175d00075813f751e8075931e5392df
:1000e000fe0200960010000800006016080808c60e
:1000f000c313c618c613c618c613c618c613c6d56a
:10010000e0ea227009080808226016181818c6c309
:1001100033c608c633c608c633c608c633c6d5e0dc
:10012000ea22e026f008a3e036f008a3e036f00863
:10013000a3e036f022e0f608a3e0f608a3e0f60814
:10014000a3e0f622e6f008a3e6f008a3e6f008a391
:10015000e6f022cac0e0e6f30908dafad0e0fa22b3
:10016000600c08c6c313c618c613c6d5e0f42270c7
:100170000422600d18c6c333c608c633c6d5e0f4e2
:100180001822e4735392fed083d082251ef8c51e38
:10019000c39824fbcef208e520f208e9c0e0790814
:1001a000e709f208defad0e0f9eff208d0e0fed07d
:1001b000e0f208eef208e473a81ee2fe08e208f599
:1001c00020e9c0e07908e208f709dffae208ffd089
:1001d000e0f9e208c0e0e208c0e0881e5392fe2287
:1001e000e584f208e585f222e208f584e2f585224d
:1001f00074028000c9c0e0e51ec399f51ec9120152
:1002000053d0e0f92275bc0075bc005392fe2280e9
:100210000f8a828b835392fee0f5bda3aa82ab8343
:10022000ecf8edf9e824ff1ce934fffde84970e142
:100230005392fe22e5bdf9e5bcfae9fb5392fe229a
:100240007400f5d374032408f5d25392fe2275c9c5
:100250000bc2af80fe74fa120184e9fec39402401f
:1002600029a2afe433f8c2af906270e0a2e740f891
:10027000eec333906272f0906270e0d2e0f0e0a2e0
:10028000e740fbe8a2e092af800312024e7f01023a
:1002900001b874f9120184e9fe8a088b097409789f
:1002a00008120160e508c39402404ca2afe433ff9a
:1002b000c2afed900003f0eca3f0a37462f0a3745e
:1002c00073f0a3e4f0eea3f0a37412f0a37442f071
:1002d000eb906272f0ea906271f07400f5d575d41b
:1002e0000375d601906270e0d2e1f0e0a2e740fb36
:1002f000efa2e092af800312024e7f020201b853d8
:1003000092fe906276e0547064307004780380024c
:10031000780775c6807480659e70fa906270740864
:10032000f088c790ff0ae0f5f190ff02e0f586a3a0
:10033000e0f5c4a3e0f5c5a3e0f5c2a3e0f5f8a39a
:10034000e0f5fba3e0f5fca3e0f5faa2fe500ee514
:10035000f1a2e14008e5ff543f4440f5ff90ff0b58
:10036000e0f5f3a3e0f5f4a3e0f5f522c008c00939
:100370008908750900740b780812016ffae50944c1
:1003800080fbd009d0085392fe2274f712018490aa
:100390009093e064bf7063e5c7f50812020575c766
:1003a000007c937d007a007b9012020f7c5d7d07bc
:1003b0007aa37b9012020f909094e014f5097f00cd
:1003c000801674032ffef912036ceec4540ff5c7a8
:1003d0007c007d0812020f0fefc3950940e48508e9
:1003e000c71202348a088b09a808a909909095e0e1
:1003f000687003a3e069703e8038e5c7f5087fa503
:100400007e02eef912036c8a828b83eec4540ff5e0
:10041000c778007908e02fffa3e824ff18e934ff2c
:10042000f9e84970f00eeec3943040d68508c7ef66
:1004300070047901800279007f040201b85392feb2
:10044000900001e090001bf0900002e090001cf092
:10045000e59d54186410700890001be0a2e0403d38
:10046000e5c7f8790075c700909000e0640270015c
:100470000988c7e9a2e0502512038ae9601f9000ad
:10048000017403f090001ce0900002f005929008c7
:100490004ce0f582a3e0f58305921201821202ff7f
:1004a000900001e4f012024012064080fe740759e9
:1004b000f87401b800028004c333d8fcf8741859ea
:1004c000600a24f8600b24f8600c800de8428080fc
:1004d00008e842908003e842a05392fe2274075934
:1004e000f87401b800028004c333d8fcf4f874181f
:1004f00059600a24f8600b24f8600c800de85280e3
:100500008008e852908003e852a05392fe227407bc
:1005100059f87401b800028004c333d8fcf8741889
:1005200059600a24f8600b24f8600c800de842fd45
:100530008008e842fe8003e842ff5392fe227903de
:100540005392fe906276e0a2e65002790722e9f823
:100550005392fe900845e0700c88c1e586a2e04009
:10056000fae5c1f92288f9a2f840fce5f9f922740c
:10057000f7120184151e151ea81e1201e075841db8
:10058000758500900846e060167f107e8079001225
:10059000054ee90592f0a3def41fef604e80ec906b
:1005a00008477808120135740f78081200eae50848
:1005b000f5c79008477808120135e508f582e50986
:1005c0004480f583791078805392fee00592f0051f
:1005d00092a30592a3d8f1d9ed059290084e780820
:1005e0001201359008477808120122a81e1201e86e
:1005f000051e051e7f040201b874f71201849008dd
:1006000046e0601e900843e0f91204dd790312050c
:100610004e790012054e790012054e790012054ef2
:10062000801c90084be0f508e4f509f50af50b7419
:100630000b7808120103900847780812014480b42f
:1006400074f5120184151e151ea81e1201e07e000d
:100650007f0012053ee9f5c790ff28e0900843f0bf
:1006600090ff29e0900844f090ff27e0900845f0c3
:1006700090ff2ae0a2e0e433900846f090f7e4e02f
:1006800090084bf0f509900846e0a2e05041900830
:1006900044e0f91204dd900844e0f912050e9008d8
:1006a00044e0f91204ad78fee595f9e5956960043a
:1006b000e595f918e870f4900843e0f91204ad905c
:1006c0000843e0f912050e900843e0f91204ad1258
:1006d00005f912056f1202057cfe7d077a1f7b006b
:1006e00012020f1202348a0a8b0b750c268e0d78bb
:1006f0000c1201f07c1d7d007a1d7b081208a505f7
:100700001e051ea80b90081ee068600302083990c1
:10071000081de0650a6003020839120205900846c8
:10072000e0701374075509f87401b800028004c31f
:1007300033d8fc1208608e0812084cc0e0740755cc
:1007400008f8d0e0b800028004c313d8fca2e0503f
:1007500027900846e0701374075509f87401b80033
:10076000028004c333d8fc12086012056f7c007d40
:10077000087a1d7b0012020f0508e508c39480402b
:10078000b7900846e06008900843e0f91204ad1203
:1007900002348a0a8b0ba80b900820e068600302e1
:1007a000083990081fe0650a60030208398e08e5e1
:1007b0000812086cc0e074075508f8d0e0b80002d1
:1007c0008004c313d8fca2e05005a9081202550505
:1007d00008e508c3948040d71205f912056f8e080a
:1007e00012084cc0e074075508f8d0e0b800028049
:1007f00004c313d8fca2e0503512056f75841d7533
:1008000085007509007980ac84ad85eefaeffb12a6
:100810000292ee2420fee43fffe5842480f584501c
:100820000205850509e509c39410500480d70f0f10
:100830000508e508c3948040a7900846e06008904a
:100840000843e0f91204ad75c90880fee5081313ea
:1008500013541ff8742328f582e43408f583e0224a
:10086000f4fae50912086c5af0050922131313541f
:100870001ff8743328f582e43408f583e02253929c
:10088000fe2274fa120184151e151eeafeebffa863
:100890001eeef208eff2aa1eab93790112087e80d9
:1008a000ee12009322c084c0858c848d858a828b51
:1008b00083a81ee2fc08e28012439201e00592f058
:1008c000a30592a3ec24ff1ced34fffdec4d70e971
:1008d000d085d0845392fe22ffffffffffffffff72
:1008e000ffffffffffffffffffffffffffffffff18
:1008f000ffffffffffffffffffffffffffffffff08
:10090000fffffffffffffffffffffffffffffffff7
:10091000ffffffffffffffffffffffffffffffffe7
:100f000012010002000000205824feff0000010230
:100f1000030109021b0001010480250904000000ef
:100f2000fe01020409210d03e84000010104030948
:100f300004120342006c00750065006700690067d9
:100f400000610016034c006f007700200045006e22
:100f50000065007200670079000a03310032003337
:100f6000003400080344004600550000ffffffff67
:100f7000ffffffffffffffffffffffffffffffff81
:100f8000ffffffffffffffffffffffffffffffff71
:100f9000ffffffffffffffffffffffffffffffff61
:100fa000ffffffffffffffffffffffffffffffff51
:100fb000ffffffffffffffffffffffffffffffff41
:100fc000ffffffffffffffffffffffffffffffff31
:100fd000ffffffffffffffffffffffffffffffff21
:100fe000ffffffffffffffffffffffffffffffff11
:100ff000ffffffffffffffffffffffffffffffff01
:101000000211080231adffffffffff023e57ffff55
:10101000ffffff023f06ffffffffff023fbdffff95
:10102000ffffff022624ffffffffff023bd6ffff6b
:10103000ffffff023e09ffffffffff023f5dffffd3
:10104000ffffff023ee1ffffffffffffffffffff8c
:10105000ffffff023193ffffffffffffffffffffd7
:10106000ffffffffffffffffffffff023d4dffff01
:10107000ffffff02402fffffffffff023dc6ffff04
:10108000ffffff0231b8ffffffffffffffffffff82
:10109000ffffffbf2e25220000000000000000001f
:1010a0000000237582fc75837f7400121123e4799c
:1010b000347802b800028004f709d8fce4900303f6
:1010c000788979068002f0a3d8fcd9fa7a8b7b085c
:1010d000901144788679028015e493a3ad82ae83a3
:1010e0008a828b83f0a3aa82ab838d828e83d8e918
:1010f000d9e77582c67583ed740212112375825388
:101100007583f8740212112375d00075813f753113
:1011100000753203753303759f007593005392fe7b
:101120000210aec09ff59fe473d09f225392fed071
:1011300083d082c09fe493c0e0740193c0e0740246
:1011400093f59f220300000201020300000f00c379
:10115000a88ee8b19dcf7f5eb98b9f41efb055f46b
:1011600001fa00960064004b0032001e001400d605
:10117000be898e000106021213151429417671fff3
:10118000c1fbe84c90728be7b3518963ab23230218
:10119000841872aa612f3b51a8e53749fbc9ca0cd4
:1011a00018532cfd45e37102000040420f0000403f
:1011b0000000ffffffff0afaffffff000080006250
:1011c000000000ff7f00000500060007000000018e
:1011d0000001000001000102020300020000000003
:1011e000000202010002bf01fb9d4ef3bc36d87421
:1011f000f5394138684c19000000093d0000e4ff52
:10120000fffffb349b5f80000080001000000000a7
:10121000000002000000ff000000000008050100bf
:1012200000000000010805000000000000070300a6
:10123000000080000100008000000000070a040098
:101240000000000007090000000d00000104070075
:10125000000000000201000002027b1b811b871bb3
:101260008d1b931b991bf71a5b1d371dc11da91df3
:10127000af1d800004058000040606000000800009
:10128000040280000404800002000b0000008000c3
:101290000600803e0000401f0000e80300007317b6
:1012a000e913b3196d14bb1d611d411cc71df11a53
:1012b000010000008000000040ffffff00ffffff73
:1012c000ff00000000c000000012112cd6f7011230
:1012d000112ceef70112112c19f80112112c66f8dd
:1012e0000112112c7ef80112112ca6f80112112cfa
:1012f000f6f80112112c26f90112112c87f90112ae
:10130000112ca3f90112112cbff90112112ce4f9cf
:101310000112112c3dfa0112112cccfe0112112cdc
:1013200080ff0112112c027f0012112c1a7f001273
:10133000112c8b7f0012112cce7f0012112c56e144
:101340000212112ceae10212112c60e20212112c9d
:1013500076e20212112ca2e20212112cb7e2021262
:10136000112c10e30212112c31e30212112c8fe325
:101370000212112cd4e30212112c45e40212112c9a
:1013800070e40212112cf4e40212112c23e5021273
:10139000112c42e50212112c56e50212112c9be58c
:1013a0000212112c94dc0212112cb0dc0212112c4e
:1013b000e6dc0212112cf4dc0212112c25dd0212e3
:1013c000112c52dd0212112c5bdd0212112c9edd5c
:1013d0000212112c2cde0212112c99de0212112c99
:1013e000eade0212112c19df0212112c6ddf02123b
:1013f000112c3fe00212112c4ae00212112c7de068
:101400000212112caee00212112cffe00212112c7c
:101410003ce10212112c9cff0112112cbcff0112a5
:10142000112ce5ff0112112c6df60212112c81f620
:101430000212112cd8f60212112c2cf80212112cc7
:101440003af50212112c67f50212112c8fb202121a
:10145000112cfcb20212112c42b30212112c6bb3ec
:101460000212112c77b30212112c9ab30212112c12
:10147000deb30212112c25b40212112c83b4021215
:10148000112cd6b50212112cb9b60212112c60b76c
:101490000212112c86b70212112ccab70212112c9b
:1014a00065b80212112c7ab80212112cb8b80212c7
:1014b000112cd8b80212112c3ab90212112c4db9c4
:1014c0000212112c5db90212112c4cba0212112c0d
:1014d0006abb0212112cdcbb0212112c90bc02124e
:1014e000112c00800112112ca6810112112c2a82cc
:1014f0000112112c7e830112112ced830112112c8b
:1015000027840112112cf1840112112c7285011211
:10151000112c5a860112112c6b870112112c5d8837
:101520000112112c97890112112cf0890112112c32
:10153000588a0112112cd58a0112112c768b0112b6
:10154000112ce88b0112112c818c0112112ce78ccb
:101550000112112c558d0112112caa8d0112112c82
:10156000328e0112112ce88e0112112c9e8f011265
:10157000112c60910112112c8e930112112cd59314
:101580000112112c48940112112cb8940112112c43
:1015900006950112112cb0960112112c50970112d0
:1015a000112cdc970112112c1d980112112c9e99ff
:1015b0000112112cff990112112c099b0112112cff
:1015c000ff9b0112112c2e9d0112112c619e011204
:1015d000112c44a00112112cfaa20112112caba360
:1015e0000112112c4da40112112c3ca50112112c39
:1015f000afa50112112c1baa0112112c9dac0112d6
:10160000112c72ad0112112cc4af0112112ce4b0d7
:101610000112112c0db20112112c24b20112112c45
:101620003bb90112112ce9e50212112c28e6021235
:10163000112c55e60212112c82e60212112c6fe7d2
:101640000212112c46e80212112c28f40212112c5d
:1016500081f40212112ce2f40212112c1341001237
:10166000112c31410012112c4e410012112c6b41f2
:101670000012112c93410012112cb8410012112cb0
:10168000e0420012112c5a430012112c7245001234
:10169000112cd8450012112c63460012112ca346c0
:1016a0000012112cd7460012112c19470012112cd0
:1016b00087470012112c35480012112c43480012a4
:1016c000112c56480012112c83490012112cbf4bcb
:1016d0000012112c3f4c0012112c734c0012112cd3
:1016e000b74d0012112ce04e0012112c004f0012c9
:1016f000112c274f0012112c634f0012112c964f02
:101700000012112cbc530012112ce4530012112ca6
:1017100030540012112cb75a0012112c035b001226
:10172000112c445b0012112cf05b0012112cb75ce1
:101730000012112c5b5f0012112cc6600012112cdc
:1017400036610012112ce4630012112c5f64001248
:10175000112ca3640012112cef640012112c4765a8
:101760000012112ce8650012112c32660012112ca7
:101770008d660012112c97660012112cce67001294
:10178000112c85680012112c0b690012112c66694e
:101790000012112c266a0012112cc76a0012112c9b
:1017a000516c0012112c726c0012112cac6e0012d4
:1017b000112cde6f0012112c82700012112cf670a9
:1017c0000012112ccf710012112cd2720012112ca8
:1017d000ca730012112cdb730012112ce573001276
:1017e000112ce2750012112c3f760012112c6e762e
:1017f0000012112cd5760012112c04770012112c36
:1018000097770012112c2b780012112c8c78001273
:10181000112c02790012112c38790012112c6d79db
:101820000012112c8c790012112ce5790012112c68
:10183000ff790012112c2c7a0012112c3a7a001226
:10184000112c637a0012112cd27a0012112cb3f0f1
:101850000212112c6ff10212112c91f10212112cb3
:10186000dcf10212112c1ff20212112c0ef80212de
:10187000112cdde30112112c09e40112112c5ee49c
:101880000112112cbee40112112c46e50112112c9b
:101890000be60112112c26e70112112c20e901128e
:1018a000112c08ed0112112c17ef0112112c13f25b
:1018b0000112112c57f20112112c4bf30112112cb1
:1018c00050f40112112cb0f50112112c25f6011261
:1018d000112c48f60112112c6bf70112112ca5f7ef
:1018e0000112112c987b0012112cc47b0012112cb8
:1018f000db7b0012112cdf7b0012112c797c001293
:10190000112c697e0012112c00800212112c76809d
:101910000212112c93800212112cc0800212112c81
:10192000ec800212112c20810212112c678102120c
:10193000112c96810212112cf9810212112c56825f
:101940000212112c24830212112c9e830212112cdc
:101950003f850212112cf7850212112c8a8802127f
:10196000112c018c0212112c458c0212112c9e8c10
:101970000212112c548d0212112c258f0212112cdf
:10198000b58f0212112cf68f0212112c4c900212fc
:10199000112cc7900212112cec900212112c3f91c5
:1019a0000212112c80910212112cfb920212112ca6
:1019b0001c940212112c2d940212112ca9950212c2
:1019c000112cbf950212112ce7950212112c9e9634
:1019d0000212112cb3960212112ce5960212112c50
:1019e000eb970212112c7d980212112cb39802125f
:1019f000112cfb980212112cef990212112c4a9a09
:101a00000212112c319b0212112ca49b0212112cd8
:101a1000e89b0212112cff9c0212112cdf9f021274
:101a2000112c0fa00212112c71a00212112cdaa09d
:101a30000212112c71f20212112c7ef20212112ce0
:101a4000a1f20212112ce4f30212112cf1f3021292
:101a5000112c1ff40212112cbfd70212112cdbd74c
:101a60000212112ca6d80212112c4cda0212112cdf
:101a7000aada0212112cf8db0212112c61dc02121c
:101a8000112cd8f50212112c06f60212112c30f688
:101a90000212112cb9e80212112c42e90212112c87
:101aa00074e90212112ce4e90212112c86ea0212e6
:101ab000112cb4ea0212112caaf70212112cb6f75b
:101ac0000212112c7db90112112cd3b90112112c63
:101ad0009bba0112112cb6bc0112112c50be01127e
:101ae000112c16bf0112112c1ac00112112c98c012
:101af0000112112c05c10112112cbbc10112112cb4
:101b000023c40112112ca3c40112112c07c5011208
:101b1000112ce3c50112112c8dc60112112c8ac79c
:101b20000112112c94c80112112c43cd0112112c59
:101b30006fcf0112112c3fd20112112cd6d40112f9
:101b4000112cacd70112112c96d90112112c26dcc4
:101b50000112112c62e00112112c85e10112112ced
:101b600074e20112112ceae20112112c3ee301127f
:101b7000112c61e30112112cd5ee0212112c53ef3e
:101b80000212112c69ef0212112c7fef0212112c9c
:101b900095ef0212112cb6ef0212112cccef0212ab
:101ba000112ce2ef0212112c0cc70212112c9cc74f
:101bb0000212112c1fc80212112c45c80212112c3e
:101bc00011c90212112cc7c90212112c07ca021224
:101bd000112c8dca0212112cffca0212112c61cbda
:101be0000212112cdecb0212112cf1cb0212112c9d
:101bf00005cc0212112c3acc0212112c6ccc021220
:101c0000112c9ecc0212112ce4cc0212112c24cdea
:101c10000212112c78cd0212112c87cd0212112c38
:101c200090cd0212112c23ce0212112c5acf021287
:101c3000112c0cbe0212112c1bbe0212112c30bf33
:101c40000212112c4abf0212112cf1c00212112ce7
:101c5000a6c10212112c0fc20212112c34c20212a0
:101c6000112c57c20212112ca1c20212112cecc26b
:101c70000212112c36c30212112c7fc30212112c36
:101c8000b1c40212112cbfc40212112cc7c402121b
:101c9000112cf3c40212112c0dc50212112c8dc58a
:101ca0000212112ca0c50212112cb3c50212112c64
:101cb000d0c50212112ce2c50212112cf0c502127d
:101cc000112cfec50212112c0ec60212112c1ec6ba
:101cd0000212112c87c60212112cb3c60212112c4b
:101ce000bdc60212112cc6c60212112cd8c6021291
:101cf000112cf2ec0212112c1fed0212112ceba090
:101d00000212112c0fa10212112c24a10212112c6b
:101d1000c2a10212112c21a20212112c7aa20212cb
:101d2000112c8fa20212112cdaa20212112c71af07
:101d30000212112cf3af0212112c8fb10212112cce
:101d400017b20212112c05eb0212112c67eb0212d2
:101d5000112c8beb0212112cdaeb0212112c2eec4f
:101d60000212112ccfec0212112ce8ec0212112cf1
:101d70007ccf0212112c99cf0212112ca9d0021281
:101d8000112c08d10212112cb0d10212112c2fd318
:101d90000212112cdbd30212112c29d40212112ca5
:101da0008ed40212112cf4d40212112c46d5021238
:101db000112cd2d50212112c4dd60212112c26d77d
:101dc0000212112c43f80212112c47f80212112ca6
:101dd00049f80212112c4ff80212112c51f802127c
:101de000112ca3100012112ceaf60212112c57f735
:101df0000212112cdff702e066701008a3e0667093
:101e00000a08a3e066700408a3e06622c3e7960808
:101e100009e7960809e7960809e796a2d265d03344
:101e200022c3e09608a3e09608a3e09608a3e096f4
:101e3000a2d265d03322c021c3e096f52108a3e0e9
:101e400096422108a3e096422108a3e0964221a2ef
:101e5000d265d033e5217001d3d02122c3e79608a3
:101e600009e7960809e7960809e79622c3e096086d
:101e7000a3e09608a3e09608a3e09622c021c3e061
:101e800096f52108a3e096422108a3e09642210896
:101e9000a3e09645217001d3d02122080808eac0aa
:101ea000e0ebc0e086f0e7a4fa180986f0e7a42a80
:101eb000fa180986f0e7a42afa180986f0e7a42a96
:101ec000fa1986f0e7a4fbe5f02afa190886f0e78c
:101ed000a42bfbe5f03afa190886f0e7a42bfbe502
:101ee000f03afa18180986f0e7a4c5f02bfbe43a9b
:101ef000fa1908e7c5f0c6a426f6e5f03bfbe43a7c
:101f0000fa1886f0e7a4f6e5f00826f6e43b08f6b2
:101f1000e43a08f6d0e0fbd0e0fa22e4cfc0e0e4f7
:101f2000cec0e0e4cdc0e0e4ccc0e075f020e62611
:101f3000f608e633f608e633f608e633f61818181e
:101f4000ec33fced33fdee33feef33ffc3ec9709ca
:101f5000ed9709ee9709ef97191919400fffec97c4
:101f6000fc09ed97fd09ee97fe191906d5f0bfecb7
:101f7000f709edf709eef709eff7191919d0e0fca9
:101f8000d0e0fdd0e0fed0e0ff22121ff2181818ba
:101f9000121f1b121fe119191922121fe119191919
:101fa000080808e618181820e7e0121f1b121ff295
:101fb00018181822090909e719191920e7dc080877
:101fc00008e618181820e703021f1b121ff2181842
:101fd00018121f1b121ff2181818121fe1191919d5
:101fe00022e4c397f709e497f709e497f709e49720
:101ff000f722e4c396f608e496f608e496f608e4b9
:1020000096f6226017080808c6a2e713c618c6137a
:10201000c618c613c618c613c6d5e0e9226016084e
:102020000808c6c313c618c613c618c613c618c6f2
:1020300013c6d5e0ea2270090808082260161818ad
:1020400018c6c333c608c633c608c633c608c63367
:10205000c6d5e0ea22e627f60809e637f60809e6db
:1020600037f60809e637f622e026f608a3e036f64a
:1020700008a3e036f608a3e036f622e026f008a32f
:10208000e036f008a3e036f008a3e036f022c3e61d
:1020900097f60809e697f60809e697f60809e6971d
:1020a000f622c3e0c696f608a3e0c696f608a3e0bb
:1020b000c696f608a3e0c696f622e056f608a3e018
:1020c00056f608a3e056f608a3e056f622e647f6d1
:1020d0000809e647f60809e647f60809e647f62242
:1020e000e046f608a3e046f608a3e046f608a3e0bb
:1020f00046f622e066f608a3e066f608a3e066f678
:1021000008a3e066f622e0f608a3e0f608a3e0f6ee
:1021100008a3e0f622e6f008a3e6f008a3e6f0083c
:10212000a3e6f022e0faa3e0fba3e0fca3e0fd229b
:10213000eaf0a3ebf0a3ecf0a3edf022e0fca3e0c7
:10214000fda3e0fea3e0ff22ecf0a3edf0a3eef090
:10215000a3eff022e0f8a3e0f9a3e0faa3e0fb226a
:10216000e8f0a3e9f0a3eaf0a3ebf022cac0e0e6ae
:10217000f0a308dafad0e0fa22cac0e0e0a30592a0
:10218000f0a30592daf6d0e0ca225392fefae9fbf8
:102190007921e7f0a309dafae8f0a3ebf9f0a3ec70
:1021a000f0a3edf0a3eef0a3eff0a3e520f0a3e59c
:1021b000f0f0a3e592f0a3e584f0a3e585f0a3e5b4
:1021c00081f0a3e531f0a3e532f0a3e533f0a3d02d
:1021d000e0fad0e0f0a3caf0eac0e0e0c0e07a00a4
:1021e0007b00225392fecac0e0ebc0e07921e0f709
:1021f000a309dafae0f8a3e0f9a3e0fca3e0fda369
:10220000e0fea3e0ffa3e0f520a3e0f5f0a3e0c02b
:10221000e0a3e0f584a3e0f585a3d0e0f592d0e05b
:10222000fbd0e0fae0f581a3e0f531a3e0f532a3bd
:10223000e0f533a3d0e0d0e0e0c0e0a3e0c0e0ea06
:102240004b70027a0122b90010bb0008e88af084c2
:10225000f8aaf022e4fbc8fa22eb70227b10c83304
:10226000c8c933c9335007c39ac3dbf280069a50fa
:10227000012adbeac833f4c8c933f4c9fa2275f07d
:1022800008e4c833c8c933c933c99ac99b5004c9c3
:102290002ac93bd5f0ecfbc833f4c8e4c9fa226084
:1022a0000d08c6a2e713c618c613c6d5e0f3226010
:1022b0000c08c6c313c618c613c6d5e0f4227004b2
:1022c00022600d18c6c333c608c633c6d5e0f4185d
:1022d00022253210af08f532400c15338008f53254
:1022e00040021533d2af2200c0d0253210af08f51e
:1022f00032500c05338008f53250020533d2afd08e
:10230000d0222532f58210af08f532400c1533800b
:1023100008f53240021533d2af85338322c58225ba
:1023200032c582c583353310af07f53385823280dd
:1023300007f533858232d2afc583222532f582e498
:102340003533f583222532f584e43533f5852225ae
:1023500032f8e43533f9222532fae43533fb22250d
:1023600032fce43533fd22e4735392fe2532c582fc
:10237000c0e0e53334ffc583c0e0e532c395822475
:10238000f810af08858333858232800885833385d2
:102390008232d2afcef0a3e520f0a37821e608f098
:1023a000a3defaeff0a3e58124faf8e608f0a3e64d
:1023b00008f0a3e608f0a30808e608f0a3e608f092
:1023c000a315811581d0e0fed0e0f81581158115a7
:1023d00081e8c0e0eec0e0225392fe2532c582c003
:1023e000e0e53334ffc583c0e0e532c3958224f9cc
:1023f00010af0885833385823280088583338582d8
:1024000032d2afcef0a3e520f0a37821e608f0a306
:10241000defaeff0a3e58124fbf8e608f0a3e60876
:10242000f0a30808e608f0a3e608f0a315811581db
:10243000d0e0fed0e0f815811581e8c0e0eec0e004
:10244000225392fe853383853282e0a3fee0a3f51a
:10245000207821e0a3f608dffae0a3ffe0a3c0e0c4
:10246000e0a3c0e0e0a3c0e0e0a3c0e0e0a3c0e0e0
:1024700010af088582328583338008858232858358
:1024800033d2afd083d0825392fe0211295392fef1
:10249000853383853282e0a3fee0a3f5207821e036
:1024a000a3f608dffae0a3ffe0a3c0e0e0a3c0e0ea
:1024b000e0a3c0e0e0a3c0e010af088582328583ce
:1024c000338008858232858333d2afd083d0825364
:1024d00092fe22c0925392fec0d02532c582c0e047
:1024e000e53334ffc583c0e0e532c3958224f210a2
:1024f000af088583338582328008858333858232b5
:10250000d2afc8f0a3e9f0a3eaf0a3ebf0a37921de
:10251000e709f0a3d8faecf0a3edf0a3eef0a3eff7
:10252000f0a3d0e0f0a3d0e0f0a3d0e0f0a3e5204a
:10253000f0a3e5f0f0a3d0e0f0225392fe853383c0
:10254000853282e0c0e0a3e0f9a3e0faa3e0fba3b8
:102550007821e0f608a3dffae0fca3e0fda3e0feab
:10256000a3e0ffa3e0c0e0a3e0c0e0a3e0f5d0a3b8
:10257000e0f520a3e0a3f5f0e0a3c0e010af0885ec
:1025800083338582328008858333858232d2afd00f
:10259000e0d082d083f592d0e0f8d0e032e584f04c
:1025a000a3e585f022e0a3f584e0f585227404809c
:1025b00006740280027401c0e0f404122302d0e029
:1025c00012216c2274048006740280027401c0e03f
:1025d000f404122302d0e012217922d083d082e9c0
:1025e000c0e0e493a3c386f0c5f095f0f908e49346
:1025f000a386f0c5f095f0700be493a3c399400552
:10260000e9048002a3e475f002a42582f582e5f0d6
:102610003583f583d0e0f9e493a3c0e0e493c0e010
:1026200022ffffffc0e0c0d075d008c092c082c0ba
:1026300083c0f0759800e5a8f8c2af5392fe9004ed
:10264000e8e0d2e1f0753400e8a2e7e433fee8a266
:10265000e792af121311d0f0d083d082d092d0d0b5
:10266000d0e032c082c0835392fe9004b0e4f0a365
:10267000f0a3f0a3f0d083d0822274f71223d8798c
:1026800000121a3190046e122ce3123893eac398a8
:10269000f8eb99f99003ff123422c3e89ce99d40be
:1026a0002c9003fd123422900401e02af8a3e03bb1
:1026b000f9e8c39cf8e99df99003f2123003a3ec0a
:1026c000f0a3edf09003ffecf0a3ed80239003f274
:1026d000122b8d9003ff122cee9003ff1238939073
:1026e00003f41230039003fbe070047402800114c1
:1026f000f07af07b031238a6800ff08532828533a2
:10270000831225a574021222e77f0202248d74f73a
:102710001223d8e9fe9003fce0f8ee600924fe6085
:102720001d14601a80329003f9e0a2e35009e860ba
:10273000279003fc148020c2e2f0d2e380199003ba
:10274000f9e0a2e2500c740868600d9003fce0040c
:102750008005c2e3f0d2e2f09003fae07008900343
:10276000f874fff0804990600a12291949703d9071
:10277000618fe0c0e09003fce0f87408c398f8d0e3
:10278000e0b800028004c313d8fcf52174ff652172
:10279000700990600ae4f0a3048010e5212401f898
:1027a000e43400f990600ae8f0a3e9f012267a0216
:1027b000270974f71223d8e9fe24fc600624fe6082
:1027c0002d80109004cae06401702312173de97057
:1027d0001d805890041de064017013900417e4f00c
:1027e000ee700b7b091230f4fa7900123c859004ec
:1027f00017e0700890041574fff0802f90618fe04f
:10280000ff7900121a318b22a922900419e02af8cc
:10281000a3e039f9740f5ffae82af8e439f9900473
:102820000f1230037a0d7b041238a602270974f7c1
:102830001223d874fe12230212259d9004671229d8
:10284000192412fae439fb90605ce060088a828bfc
:1028500083e0d2e1f0e82430fce439fde82432f5ed
:1028600084e439f58590605ae0700690605ee0601f
:102870003a8a828b83e0a2e1401dd2e1f0e8242273
:10288000f582e439f583122b831222be8c828d836c
:10289000e521f0a3e522f0e40592f0a3f0790085ac
:1028a00032828533835392fe022701e8241ef5828b
:1028b000e439f58312388a858482858583e02ef099
:1028c000a3e03ff08c828d830592e0fca3e0fdc382
:1028d0000592e09ca3e09d50c488828983a3a3a3b2
:1028e000a3a3a3a3a3a38582848583858a828b83e4
:1028f000e0a2e1500474088002743e0592f07b026d
:10290000888289830592a3a3a3a3a3a3a3a3e0fa28
:102910007900123c8579018086123897e82274f597
:102920001223d874fe12230212259d122fd0f58493
:10293000e43ff5850592e0fc7003022b7eee242e29
:10294000f582e43ff58305921238938e828f83a33c
:10295000a3a3a3a3a3a3a38582238583248e828f0d
:1029600083a3a3a3a3a3a3a3a3a3aa82ab83ee24bd
:1029700034122fee687003a3e069702d74026c703e
:1029800003022b1774016c7003022a17740c6c700d
:1029900003022b7e740d6c7003022b7e74096c6035
:1029a000258a828b8374228059ec14606a14700328
:1029b000022b1724fa601c14600c14604614700378
:1029c000022b5a022b7e906008e0a2e65003022bf5
:1029d0007e8030ee2439f582e43ff58380138882cf
:1029e0008983a3a3a3e064037003022b7e888289fa
:1029f000831229194970e78a828b83e0641370037c
:102a00007416f07b02852382852483e0fa79001214
:102a10003c857901022b80ee245512332bee244c99
:102a2000fce43ffdea24fff521eb34fff522e5212c
:102a3000687003e522697075ee244d122c0e8e82ab
:102a40008f83122b8b8c828d83e025e0f8e433f9a1
:102a5000e82403f85001098e828f83a3a3a3a31255
:102a60003004900498e0a2e050098e828f83a3a3e3
:102a7000122fff9004b9e4f0a3f0a3f0a37402f0c6
:102a8000900498e0a2e04003022b7e906062e4f0a4
:102a90008c828d83e0f875f0e2a4c8aaf075f0048a
:102aa000a42af9e8122fc5123003022b7eea6870bf
:102ab00002eb696003022b7e7521097522007821e3
:102ac0001225b1ee241bfae43ffb121deb74021237
:102ad00022e7900498e0a2e05007eefaeffb1233f1
:102ae00037e40592f0ee2422f582e43ff583059267
:102af000122b831222beee2430f582e43ff583e5eb
:102b000021f0a3e522f0ee2432f582e43ff583e4e0
:102b1000f0a3f07b08805ae8240108500109ee2454
:102b20005c122fee687003a3e06970527521057581
:102b3000220078211225b1ee2457fce43ffdee245b
:102b400024fae43ffb121deb74021222e7eefaefc7
:102b5000fb121737e40592f08024eefaeffb121314
:102b600017e40592f00592900498e0a2e0500f7be4
:102b700007852382852483e0fa7900123c85790059
:102b8000023106122d1a7403782122a3a3e028f043
:102b9000a3e039f02274f81223d874fe1223021233
:102ba000259d900467123b7812291ee97050122867
:102bb0002ee9704ae584242ef582e43585f583e01c
:102bc0002401f0a3e03400f0906008e0c0e0e58468
:102bd0002436f582e43585f583d0e0f0e584241ec3
:102be000f582e43585122c120592a3a3e028f0a308
:102bf000e039f005929004671233311238a685321d
:102c0000828533831225a574021222e7803ff58264
:102c1000e43ff583122c1822e0f8a3e0f9e828f845
:102c2000e933f922123666f582e43ff58312364e17
:102c30001217c7ee241ef582e43ff583122fdc2421
:102c4000fcf8e934fff98e828f83122fff7f010297
:102c5000248d74f71223d874fe12230212259d903e
:102c600004d71238a09004d7122ce3ac82ad839025
:102c700004bec8241ef584e438f5850592e0f8a367
:102c8000e0f9e828f8e933f990049ae0f521a3e0a7
:102c9000f522122d040592e028f8a3e039f98c8280
:102ca0008d831230039004b9122cf78c828d83121d
:102cb0002cee9004bb122cf77a207b4e1222468811
:102cc0002189228c828d83e09521f0a3e09522f06a
:102cd0009004c0122cf7e828f8e933f9e8122fbd68
:102ce0000226fae0f8a3e0f5838882a3a322c3e0da
:102cf00098f0a3e099f02212389790049a122d1ab6
:102d0000122d0422e88521f0a4c8aaf08522f0a49f
:102d10002afa8521f0e9a42af922e0f521a3e0f5b9
:102d2000222274f31223d874fe12230212259d125c
:102d30002fd0f523e43ff524852382f583e0640c4e
:102d40007011906008e05403600985238285248314
:102d5000740df0ee2412f584e43ff5850592e0a2af
:102d6000e35008c2e3f00592022fa18e828f830503
:102d700092a3a3858221858322906062e0600e7910
:102d800010121a318521828522831238a012291e41
:102d9000e96003022faa12282ee96003022faa90ed
:102da0006008e0c0e0ee2436f582e43ff583d0e031
:102db000f09061d5e0f89061d7e06805926005e099
:102dc000d2e28003e0c2e2f005929004bb123331fc
:102dd000906062e06016ea24c0faeb3437fb123ce4
:102de0005a9004c0122fdc122fbd8012123c449066
:102df00004c0122c14906064e028f0a3e039122f74
:102e0000f624fff0a3e034fff0ee242b122fee9017
:102e100004bdf0ee242012332bee242ef525e43fe2
:102e2000f526ee245cf584e43ff585ea4b70030259
:102e30002edf90049ce0f8852382852483e0fc70db
:102e40002b122fe16003022edfee2439122fe460f3
:102e500003022edfe8a2e05003022edfea2401f88d
:102e6000e43bf990049ae8f0a3e9805d740d6c707e
:102e70006e122fe17069ee2439122fe47061e8a21e
:102e8000e0405c858482858583852584852685054b
:102e900092e0f8a3e0f90592e0c398f8a3e099f96d
:102ea000e824ff18e934fff9ea24010a50010bc3b2
:102eb00098eb9990049a5006eaf0a3eb800b12303d
:102ec000038523828524837402122ff6f8a3e0f988
:102ed0009004be123003eefaeffb122c52805a908f
:102ee000049a7401f0a3e4f0ee241e122c0e852146
:102ef00082852283122b8d9004b91238938521820a
:102f0000852283122cee852382852483e0640c7055
:102f100028852582852683e02402f8a3e03400f981
:102f20000592e0faa3e0fbc3e89ae99b400b8523f6
:102f30008285248374020592f08e828f835392fee1
:102f4000a3a3a3a3a3a38582848583859060641231
:102f500038937a717b021222468922e82405f8e42c
:102f60003522f98584828585831230038e828f8392
:102f7000a3a3a3a3123331858482858583e0f8c39c
:102f8000ea98eb99a2d265d0335007ea0592f0a3f4
:102f9000ebf05392fe123890852582852683122b02
:102fa0008d9004671233311238a6853282853383bf
:102fb0001225a574021222e77f0602248d122fc566
:102fc000e8f0a3e92224eaf8e93402f990606422e7
:102fd000900467e0fea3e0ffee240a22122c18e81a
:102fe00022ee2432122feefca3e0fdec4d22f582fe
:102ff000e43ff583e022f0852182852283e022a34d
:10300000a3a3a3e8f0a3e9f02274f51223d874fe79
:1030100012230212259d8031c2e51230efc0e090ec
:1030200004c8e01230d4d0e0f09004c8e004f0a36b
:10303000e004f0a3e004f09004cce0700c7401f024
:103040007b007a007900123c8590605ae0f521906f
:103050006002e0a2e050047800800590605de0f836
:103060009004c9e0fae52128f8e43400f9e86a7030
:1030700001e960589004c8e0f52374012523547fca
:10308000f521e5231230d4e0f808089004c8e028c0
:10309000f074802521f582e43460f5830592900474
:1030a00067e0f8a3e0c82408f584e438f585e0a2d9
:1030b000e70592e04003023018d2e5f01230e62432
:1030c000db1230effa1230e64a0230288532828570
:1030d0003383803b1230d822547ff8748028f582e5
:1030e000e43460f583229004c8e01230d8e022f086
:1030f0001230f422900467e0f8a3e0c82408f582b7
:10310000e438f583e0228532828533835392fe12c0
:1031100025a574021222e77f0402248d74f5122380
:10312000d874fe12230212259d892105929004670e
:10313000e0f582a3e0f583858284858385a3a3a33c
:10314000a3a3a3a3a3e0a2e740469004cbe0f8909a
:103150006054e0c398f5229004cbe02522f0ae82c3
:10316000af838011ee2439fae43ffb121647ea4b95
:10317000600312186385222374ff2523f52204704f
:10318000e3e521a2e640097900eefaeffb1217c74a
:10319000023106c0e074f11224d38535c675a7004c
:1031a00075a1007950121a4f7f0102253ac0d075df
:1031b000d01875bf00d0d032c0e0c0d075d018c0d4
:1031c00092c082c083c0f08535c6e591fe759b0034
:1031d000f4f5915392fe906002e0a2e05004780072
:1031e000800278087900e844015e6003123009ee3d
:1031f000a2e55004f912311ceea2e75029e5a8f827
:10320000c2af9004e8e0d2e0f0753400e8a2e7e451
:1032100033f9e8a2e792afe594a2e240097594037e
:10322000e594a2e250faeea2e640030232f8906082
:1032300061e0f99004c9e4f09004cbf090046712c7
:1032400033318a828b83a3a3a3a3a3a3a3a3e024e4
:1032500010601224fc600924fc700f12270e806697
:103260001227b28061121677805c900497e06005a7
:103270001460148023906060e06480601be0c0e014
:10328000123315d0e08010906058e0f890605ce058
:1032900028f8123315e028f0906060e06480601632
:1032a000e0c0e0900467e0f8a3e0c82413f582e4ee
:1032b00038f583d0e0f0900498e0a2e05005122d9c
:1032c000228003122b95906059e0f89004b0e0281a
:1032d000f0906058e0f89004b1e028f090605a1245
:1032e000330c90605e12330c90605ce0f89004b395
:1032f000e028f01216598004a2e750031239ced00c
:10330000f0d083d082d092d0d0d0e032e0f89004d8
:10331000b2e028f022ea242cf582e43bf583e0fabf
:1033200074722af582e43404f58322f582e43ff5d1
:1033300083e0faa3e0fb22c082c0835392fe900494
:10334000bbe4f0a3f09004b9f0a3f012167d900452
:10335000c0eaf0a3eb02267474f71223d874fe12ad
:10336000230212259d12341f123890ec2429f58275
:10337000e43df583ec242bfae43dfb8a848b8574d1
:103380000168497012e0f80592e028fac3942540dc
:103390002974db2afa8023e0f521e88521f0a4f8de
:1033a000aaf08521f0e9a42af90592e0fae82af8c2
:1033b000e439f97a257b00122246eaf0ea13131366
:1033c000541ff8ec28f8e43df9e82424f582e439a8
:1033d000f5830592e0c0e074075af8d0e0b8000227
:1033e0008004c313d8fca2e040288005e8cac39a31
:1033f000faec24e5f582e43df583e0f8eac3985061
:10340000ebec2af8e43df9e824c0f582e439f583d1
:10341000e0faec242cf582e43df583ea0226fa90ea
:103420000467e0fca3e0fd2274f61223d874fe12b8
:10343000230212259d90041ee09060026004740e29
:103440008002740ff0900418e0906001f09008b6cc
:103450001221549061951221601217d390041de03f
:10346000f521740165219004167040e05402f97a48
:103470001f7b0412169b900416e0a2e050097aa468
:103480007b0475214080077a9e7b04752100a2e1b0
:1034900050047e8080027e0075230678231225b5b5
:1034a0007c1f7d04e5214e44018068e0a2e05008c5
:1034b0007aa47b04784080067a9e7b04780005928b
:1034c0009004441225cc7c257d0474ba2521f58214
:1034d000e43408f5830592e048f91216a17401124c
:1034e00022e790041de0f86005740268702e9004d5
:1034f00016e0a2e050087aa47b04784080067a9e09
:103500007b04780005929004641225cc7c457d04f0
:10351000e84404f91216a174011222e7900416e09f
:10352000a2e0e433f912169575910090041ee09024
:103530006182600474c8800274c0f0853282853371
:10354000831225a574021222e77f0302248dc08214
:10355000c0835392fe906002740ff09003fbe0046e
:10356000f064037002e4f0e02425906000f090081d
:10357000b61221549061951221609003f9e0542015
:10358000f91216951217d39003f9e0a2e15004d274
:10359000f08002c2f0a2f0e43390600cf09003f9e6
:1035a000e0a2e1503c75d90da2e5500478408002bc
:1035b0007800e84403f5d9e0a2e550067aa47b043c
:1035c00080047a9e7b04790612165f740675d90012
:1035d0001470fae5e170fc75e1959003ef740380d7
:1035e000049003efe4f075910090618274c10226ab
:1035f0007474f81223d874fe12230212259d123619
:10360000a91217d312369f1221549061951221608e
:103610001236b8123358123666f584e43ff58585c4
:10362000848285858312364e1217c71239c4e0a2f0
:10363000e250180592e0f8a3e0f58388820592a392
:10364000a3e02402f89061d5e028f0022bfe1238a6
:1036500097ee2437f582e43ff583e8f0a3e9f079ab
:1036600000eefaeffb22ee242c122fee906000f019
:103670007591009004d6e0906182f0ee24392274b6
:10368000f81223d81236a91217d312369f122154da
:103690009061951221601236b8123358022c24ee34
:1036a0002414f582e43ff58322900467e0fea3e052
:1036b000ff906002740ff022ee2436122fee90601d
:1036c00008f0ee2418122fee906005f0ee24191287
:1036d0002fee906006f0ee241a122fee906007f0a5
:1036e0002274f81223d81236a91217d312369f1259
:1036f00021549061951221601236b8022c2474f185
:103700001223d874fe12230212259d752100752202
:10371000007c6e7d04801f8882898312388a8c82a7
:103720008d83eef0a3eff088828983e521f0a3e595
:1037300022f0882189228c828d8312388aee4f7084
:10374000378c828d831238a08a828b83e4f0a3f0b9
:10375000aa21ab228532828533831225a5740212f9
:1037600022e77f0802248de5232527f8e524352864
:10377000f98a828b83122b8beef8eff9888289838a
:10378000a3a38a848b850592a3a3e0f523a3e0f588
:10379000240592e0c39523f523a3e09524f5248a1c
:1037a000828b83a3a3a3a3a3a3e0f525a3e0f5261f
:1037b000c3e5239525e5249526a2d265d033403e66
:1037c0008a828b831230038a828b83a3a3a3a3856f
:1037d0008284858385123893c3e52398e52499a2d2
:1037e000d265d033500d858482858583e523f0a38f
:1037f000e524f08c828d83eaf0a3eb02374f8882b8
:103800008983a3a3a3a3a3a3e0f527a3e0f528c37b
:10381000e49527f525e49528f526c3e5259523e5c8
:10382000269524a2d265d03350288a828b83a3a305
:10383000a3a3a3a3a3a3e0a2e75003023767888250
:103840008983a3a3a3a3a3a3a3a3e0a2e750030296
:10385000371788828983a3a3a3a385828485838560
:10386000c3e49523fce49524fd12388ac3ec9eed55
:103870009fa2d265d033500b858482858583ecf07e
:10388000a3edf0e8fce9fd023736e0fea3e0ff22fd
:1038900090049a12389722e0f8a3e0f9229003f2fc
:1038a000eaf0a3ebf02274f71223d874fe1223027d
:1038b00012259dea4b6031a2afe433fec2af12364f
:1038c000fe8a828b838016aa82ab8385828485835d
:1038d000850592e0f582a3e0f5831236fee5824588
:1038e0008370e4eea2e092af0226fb74f31223d8b9
:1038f00074fe12230212259deaf8ebf9e8497003e1
:103900000239ada2afe433f523c2af90046e123b8f
:10391000a66015a2e7501188828983a3a3a3a3a35d
:10392000a3a3a3e0a2e7407f12341fecfaedfb1241
:103930003b931239bb8a828b83a3a3e0c39521f505
:1039400025a3e09522f526c3ee9525ef9526a2d274
:1039500065d0335052858482858583a3a3a3a3e0d9
:103960001239bb0592a3a3e0f525a3e0f526e521d6
:10397000c39525f521e5229526f522c3ee9521ef85
:103980009522a2d265d033501eecfeedff1239c451
:103990000592e0d2e4f0888289831238a090046e08
:1039a00012300379018008e523a2e092af79008507
:1039b00032828533835392fe022fb02406fea3e0a9
:1039c0003400ff22ee2412f582e43ff5832274f5e1
:1039d0001223d874fe12230212259d7900121a3187
:1039e0008a238b247977121a4f9061b1e4f0e0704a
:1039f000f87403f0e0640370f890046e123893904a
:103a00000467123003e8497012123bb9e594a2e250
:103a10004003023b72759400023b728882898312d4
:103a2000333190046e1238a0123b932521faa3e0a3
:103a30003522fbea24fdfeeb34ffff88828983a355
:103a4000a3a3a3a3a3a3a3e054f8601b9003efe0f8
:103a5000f8c3ee98feef9400ffc3e5219ee5229f98
:103a60004005e521123b8b9060607480f0e521c336
:103a70009523e5229524f9e5232401fae43524fb76
:103a8000900467123ba62410604724fc600624fcc7
:103a900060078058123428807c90046e123b78e5d1
:103aa00084458560270592a3a3a3a3a3a3a3a3e0b2
:103ab000a2e74018123b8050138a218b22c3ea9e52
:103ac000eb9f4003123b8a059212389d12354e80bf
:103ad00044123b8050118a218b22c3ea9eeb9f4007
:103ae00003123b8a12389d1217d98029900498e05e
:103af000a2e050051235f1801ca985e5842412f559
:103b000082e439f583e0a2e45008c2e4f01236e121
:103b1000800312367faa21ab227930121a43eefac3
:103b2000effb7940121a437954121a4f7900121a96
:103b3000318a238b24e521c39523f8e5229524f9c6
:103b4000c3e89401123b81500c1217ebe5e170fcc5
:103b500075e121801d900368e0a2e04012aa21ab2c
:103b600022121a3d9004b5122130123bb980031283
:103b700017eb1218ff0230cce0f584a3e0f58522a4
:103b8000c3e99400a2d265d03322ea2401fee435d1
:103b900022ff2288828983a3a3122d1a8882898317
:103ba000a3a3a3a3e022123b78858482858583a307
:103bb000a3a3a3a3a3a3a3e022e5a8f8c2af900404
:103bc000e8e0c2e0f0753400e8a2e7a2e792af2295
:103bd000853487c2af22c0e0c0d075d018c092c073
:103be00082c083c0f074fc1222d15392fe9004e98b
:103bf000e0601c12168f900368e054117008e5c64f
:103c000054384487f5c69004e9e4f0c2c78020c266
:103c1000c7aa32ab331217e5e9640170129004e9c8
:103c20007401f08532828533831221241218f375d2
:103c3000340074041222e7d0f0d083d082d092d026
:103c4000d0d0e03275c3007420c39afa744e9bfb47
:103c5000eaf5a2ebf5a35392fe22c02175c301e55c
:103c6000a2f521e5a375c300f9e5212420f8e93484
:103c70004ef9e8c39af8e99bf9e8f5a2e9f5a3d073
:103c8000215392fe2274f51223d8e9feeaff8b211c
:103c9000753400a2afe433f522c2af90058ce0f595
:103ca0002474012524540ff52390058be0652370bf
:103cb000057900121aa9e52475f003a4f8a9f07497
:103cc0001928f8740539f9e82442f582e439f583b6
:103cd000eef0e82443f582e439f583eff0e824447c
:103ce000f582e439f583e521f0e52390058cf0e5d4
:103cf00022a2e092af7f0402248dc082c08374fcb4
:103d00001222d1e5a8f8c2afe595853282853383ca
:103d10005392fef0e596c0e0740112233bd0e0f030
:103d2000e597c0e0740212233bd0e0f0e8a2e7a2de
:103d3000e792af740312233be4f08532828533832c
:103d400012212474041222e7d083d08222c0e0c062
:103d5000d075d018c092c082c083c0f0121c2f1240
:103d60003cfa900623122130e58955ab900627f0e6
:103d7000e58090062af0900627e0f4f5899062d05d
:103d8000e0f8a2e15027900627e0a2e5501f53abd0
:103d9000df9062d0e0a2e0e43390062df090062799
:103da000e0c2e5f07b307a007906123c8590062768
:103db000e0600e7b007a007906123c857900121cc7
:103dc0003bc2c5023e4ac0e0c0d075d008c092c018
:103dd00082c083c0f0121c2f123cfa9006231221dd
:103de00030e58a558df8900628f0e59090062bf086
:103df000e8f4f58ae8600e7b017a007906123c85ca
:103e00007901121c3bc2eb8041c0e0c0d075d018d4
:103e1000c092c082c083c0f0121c2f123cfa9006e0
:103e200023122130e58b55acf8900629f0e5a090df
:103e3000062cf0e8f4f58be8600e7b027a00790638
:103e4000123c857902121c3bc2e8d0f0d083d082ac
:103e5000d092d0d0d0e032c0e074f01224d3906180
:103e6000a9e06017c2afe589f8e5abf975ab00e4ee
:103e7000f090624bf0888989abd2af900632e06453
:103e80000f7012e5c7f8900369e0f5c790ff1ce0da
:103e9000f4f5ae88c7e5bbf8e5baf521e8fb900676
:103ea00032e025e0f8e433f9743328f582740639fa
:103eb000f583e521f0a3ebf0900632e02410fb7ac5
:103ec000007906123c85e5a8f8c2af9004e8e0c28c
:103ed000e2f0753400e8a2e7a2e792af7f02022584
:103ee0003ac0e0c0d075d018c092c0f0e5d1f875e6
:103ef000d100c2c0a2e350097b037a007904123cce
:103f000085d0f0023e50c0e0c0d075d010c092c045
:103f100021c022c082c083c0f05392fe9007bd1220
:103f20004021602a900778e0700c7401f07b007ae1
:103f3000007904123c85ee9007bdf0e5c1c0e07445
:103f4000bf2521f582e43407f583d0e0800be5c47a
:103f5000a2e650069007777401f0024010c0e0c05e
:103f6000d075d010c092c021c022c082c083c0f0e2
:103f7000c2e95392fe90077ae0fa900779e09a54ea
:103f80003ff86029747b2af582e43407f583e0f971
:103f900074012a543f90077af089c19007bbe0680a
:103fa00070197b027a007904123c85800ee5a8f82e
:103fb000c2af9004e8e0c2e312408f8053c0e0c07b
:103fc000d075d010c092c021c022c082c083c0f082
:103fd0005392fe9008471240216029900802e07039
:103fe0000b7401f07b00fa7904123c85ee900847cf
:103ff000f0e5f9c0e074492521f582e43408f58341
:10400000d0e0800be5fba2e650069008017401f0b9
:10401000d0f0d083d082d022d021d092d0d0d0e0a6
:1040200032e0f52174012521543ffea3e06e22c049
:10403000e0c0d075d010c092c021c022c082c08321
:10404000c0f0c2ea5392fe900804e0fa900803e040
:104050009a543ff8602974052af582e43408f58300
:10406000e0f974012a543f900804f089f99008455a
:10407000e06870197b027a017904123c85800ee5b4
:10408000a8f8c2af9004e8e0c2e412408f8081f04b
:10409000753400e8a2e7e433f9e8a2e792af22031f
:1040a00006030202030302060203030105020201e2
:1040b00000010101010001000003020000050002ef
:1040c00007070002030101010000030202010f00c3
:1040d0000803050502070406080606050304040193
:1040e00003060202010109010102010102010201ac
:1040f00001030500010002000000030202010505a2
:104100000301000000020101040100000304040295
:1041100003020474f612236975210c7522007821bc
:104120001225b17c007d007a547b60121df102796a
:104130002ec082c0838a828b8380075392fee0f573
:10414000d9a3e9f874ff28190470f0026948c08205
:10415000c0838a828b838007e5d95392fef0a3e95e
:10416000f874ff28190470f0026948c082c0837493
:10417000ff1222d1800ce5d9853282853383539298
:10418000fef0e9f874ff28190470eb74011222e7bd
:1041900002694874f7122369539afee5a8fec2af7c
:1041a0001216b9798012166b121a49121869eea20a
:1041b000e7a2e792af0270f174f612236974fe125f
:1041c000230212259de970169004cae06401700e66
:1041d0009003fae0640170061217310242c39003a3
:1041e000fae070241242d160160592a3a3a3a3a300
:1041f000a3a3a3e0f91217f7900407e4f0a3f0904b
:1042000003f874fff00242c390040b12690190049a
:1042100009e0687003a3e0697900701c121a318b01
:1042200022ea2402f8e43522f99003f2124db2900a
:1042300004091242c60242bb121a319003f21269fb
:1042400001eac398f8eb99f9e82404f521e439f57b
:10425000229003ff125cb1c3e5219ce5229d402c16
:10426000900409125cb1a3e02af8a3e03bf9e8c38b
:104270009cf8e99df99003f2124db29003ffecf027
:10428000a3edf09003f4ecf0a3ed802f9003f2e0a7
:1042900028f0a3e039f09003ff1272af9003ff12f1
:1042a00042c6f0900407e0f8a3e0c8242bf582e4ae
:1042b00038f583e070047402800114f07af07b0317
:1042c0001238a60279251269059003f4e8f0a3e9f3
:1042d00022900407e0f584a3e0f585e58445852276
:1042e00074f0122369ea241ef582e43bf583124937
:1042f0007be4f523f524ea242af582e43bf58312d6
:10430000434afaa3e0fb9004b412434a2af525a3da
:10431000e03bf526e4f527f52878217925121e9b48
:104320009008ed782512210678217925121e9b90a0
:1043300008f1782512210678217925121f1be52125
:104340002402fae43522fb026ea7e0124bb074a6f9
:1043500028f582740839f583e02274f41223697415
:10436000fe12230212259d74fc1222d18a848b85b1
:10437000853282853383e4127acca3f090618fe09a
:10438000c0e08532828533837821122106e58425b9
:1043900021f582e585126c35d0e0f0900965782131
:1043a000122106853282853383782112207b900981
:1043b0008578211221068532828533837821121e69
:1043c0006c40b9858482858583122154853282852b
:1043d00033831221607a00853282853383782112fb
:1043e0002106e521543ff8743f68601fe8601c8592
:1043f00032828533837821122106740178211220bc
:104400001d12455c0aeac3941b40cceac3941b50be
:10441000030243708584828585837821122106906a
:1044200008b678211220f3853282853383782112f1
:10443000211579007a0085328285338375210175d3
:104440002200ea78211222bee5223395e0f523f519
:104450002478211220bae521452245234524600114
:10446000090aeac3942040cee9c3940250030243f0
:10447000700592e0f88584828585830592a3e068c3
:10448000701c858482858583a3a3e0687010858471
:1044900082858583a3a3a3e06870030243708584ab
:1044a000828585831221548532828533831221606f
:1044b00079007a1f8532828533837821122106e5bf
:1044c000215403f87402686005740168700109855d
:1044d00032828533837821122106740178211220db
:1044e0001d12455c1aea70cce9c3941940030243db
:1044f000708584828585837821122106741a78213b
:1045000012201d853282853383782112211579008e
:104510007a058532828533837821122106e521547c
:1045200003f87402686005740168700109853282bd
:1045300085338378211221067401782112201d858c
:10454000328285338378211221151aea70c4e9c3b7
:1045500094025003024370740402781585328285f8
:104560003383e521f0a3e522f0a3e523f0a3e524be
:10457000f02274f612236974fe12230212259d8a1a
:10458000848b85e9701e752108752200782112251b
:10459000b17c007d00121df174021222e774010546
:1045a00092f080280592e0a2e0e433f075210775cf
:1045b0002200059278211225b17c007d000592a38e
:1045c000aa84ab85121df174021222e7853282851e
:1045d00033835392fe02792b74f61223699004e818
:1045e000e0a2e0407be5c7fe126878a2e730f00168
:1045f000b34008a2e330f001b350031217798ec71d
:104600007930121a318a218b22ae21af229061b10a
:10461000e4f0e070f87403f0e0640370f81217eb54
:104620009004e8e0d2e0f0753400e59ea2e640fa9e
:10463000e594a2e24009759403e594a2e250fa7968
:1046400000121a318a218b22c3ee9521feef9522aa
:10465000ff54807004ee4f7007e5e170fc75e121b6
:1046600002793374f6122369e9fe60067ca47d04a6
:1046700080047c9e7d047521067522007821122518
:10468000b17a167b60121deb74021222e79060155e
:10469000e0c2e0f0ee6004780180027800e048f0cb
:1046a00002793374f6122369e9fe7521067522003a
:1046b00078211225b1eafcebfd7a1c7b60121deb20
:1046c00074021222e7906015e0c2e1f0ee60047817
:1046d000028002780080c674f712236974fe1223e8
:1046e0000212259de9fe8c848d85740b12233be01c
:1046f000ff74072ff5d98ed9790612165f8007430c
:104700009201e0f5d9a3eff874ff281f0470f0e5db
:10471000e170fc75e1950270e074f6122369e9fe20
:104720009004671270da6004793a8058906022e051
:10473000f874ff6870047907804a7f0080040fc313
:1047400013f8e8a2e040f7752106752200782112df
:1047500025b1eafcebfdef124825121deb740212a5
:1047600022e7752101ef78211222beaf21eff4f884
:10477000906023e058f0ee6003e04ff0906022e09c
:104780004ff0790002793374f312236974fe122317
:104790000212259d89258a848b859004671270da20
:1047a0006004793a8066906022e0f522a3e0ff750c
:1047b00021017e00e52255216043e5256007852122
:1047c00082a88280027800ef552168703075230638
:1047d00075240078231225b1ac84ad85ee124825ee
:1047e000121de574021222e78b24ea4524700ee5bf
:1047f00021f4f8906022e058f07900800f0ee52156
:10480000c333f521eec3940840aa7912853282851c
:1048100033831225a574021222e77f050224417c0e
:10482000cd7d04e52275f006a4f8a9f0742428fad9
:10483000746039fb22c082c0835392fe906022e4f0
:10484000024f1fe594a2e25003759402e5e170fc6b
:1048500075e10102694c74f012236974fe1223029f
:1048600012259d8c278d28eafcebfdea24faf8eb53
:10487000126399400302495ae52724faf8e5281201
:104880006399400302495ac3e5279ae5289b5003e0
:1048900002495a741612233b1277ffc3ee94f5efc8
:1048a0009401400302495a741412233b12497be5d8
:1048b0002124f6f8e522126390400302495a90043d
:1048c000d4e0f8c394024037e8c333f88882858285
:1048d00025ecf8edf9aa257b001222468a238b24c9
:1048e000a823a924e8496017ec2525fae43dfbea52
:1048f000c398fceb99fdc3e5279ce5289d405b74bc
:104900000378211222bec021c022ee2401f525e445
:104910003ff526e4f527f5288c218d22f523f52493
:1049200078257921121e9bd022d021782179251259
:10493000208e8521258522268523278524289009f8
:10494000f878251220bae525452645274528700a1e
:10495000e521452245234524700479128011741203
:1049600012233b124bb7ec0592f0a3edf0790085d2
:1049700032828533835392fe026e9fe0f521a3e0dd
:10498000f5222274f012236974fe12230212259d6f
:1049900074fb1222d1e9853282853383f0740312cd
:1049a000233becf0a3edf08a278b28900498e0a23b
:1049b000e040079003f8e0f46005790c024bad7419
:1049c0001c12233be0f523a3e0f524741e12233bc5
:1049d00012497b78211225b178231225b174051272
:1049e000234f8825892678251225b1742012233b70
:1049f000125cb1741e12233b1271c91216bf7406e9
:104a00001222e7e96003024bad1217fd8a258b26bf
:104a1000ae25af26ee4f70057909024bad8e828f21
:104a200083a3a3a3a3a3a3a3a3e0c0e074031223bf
:104a30003b124bb7d0e00592f0e52745286044755e
:104a40002506752600059278251225b1ac27ad28dc
:104a5000ee240bfae43ffb121deb74021222e7ee88
:104a60002412125f44853282853383e0059260050b
:104a7000e0d2e08003e0c2e0f00592906014e0c272
:104a8000e380080592906014e0d2e3f074171223db
:104a90003be0600478018002780090049ce054fdc3
:104aa000faa3e0fbe8124bb0ea48f8eb49f99004ae
:104ab0009ce8f0a3e91260a9ee2414fae43ffb128b
:104ac00016837a0090618fe0c0e01263572418f5d6
:104ad00082e439f583d0e0f00aeac3940340e5129a
:104ae0004ed1ee126a203ff585740112233b1270fd
:104af000c012637ce523f0a3e524f01263be125ad2
:104b0000aee521f0a3e522f09004b4e0c0e012632a
:104b1000a8d0e0f0ee241bf582e43ff5837402f0a8
:104b20000592e0f8a3e0f9126372e80592124db322
:104b30009004c7e0c0e0ee24e5f582e43ff583d0c1
:104b4000e0f075210575220078211225b17cc27d27
:104b500004ee2424fae43ffb121deb74021222e758
:104b6000eefaeffb12173790618fe054072405c06f
:104b7000e0ee2429f582e43ff583d0e0f0e5a8f8e3
:104b8000c2af9004091271c99003ff1269609003cb
:104b9000f4eaf0a3eb1267a7900407eef0a3eff09e
:104ba0009003f874f0124ec51217bb7900026e9490
:104bb00025e0f8e433f922e0f584a3e0f5852274da
:104bc000f7122369e9feec4d602cea4b6028ea24d9
:104bd000e0f8eb124c36500aec24e0f8ed124c36bb
:104be00040047900804dec2af8ed3bc313f9e8133b
:104bf000900419124db3ee6004900418f074091279
:104c0000233be090041df0740b12233be09004164c
:104c10006005e0d2e08003e0c2e0f0906014e05470
:104c2000fcf0740a12233be0f86006906014e04840
:104c3000f079010270f11263a294e1e9943f2274c9
:104c4000f6122369e99004166005e0d2e18003e0e2
:104c5000c2e1f075210675220078211225b1eafc27
:104c6000ebfd7a1f7b04121deb74021222e7790020
:104c700002793374f612236974fe12230212259d01
:104c800074ff1222d1e9fe9004177077e0606fa2e2
:104c9000afe433f521c2af900467e0640d7004a364
:104ca000e0640470171272bf4009759403e594a282
:104cb000e250fae5e170fc75e142800d9004157454
:104cc000fff07a0d7b041217b5900417e4f0e5218c
:104cd000a2e092af900415124edb64f460f69004eb
:104ce0001b1242d460180592a3a3a3a3a3a3a3a35a
:104cf000e0f91217f790041be4f0a312679e790005
:104d0000027920e06004793a80f6eec394029004c0
:104d10001e400474018001e4f090041de0f8740367
:104d2000686052740268604d9004d5e06004790cac
:104d300080ce1217fd8a218b22a821a92290041b64
:104d4000124db2e8497004790980b5900498e044a6
:104d500001f090049ce054fdfaa3e0fb900416e0ff
:104d6000a2e0e43325e0f8ea48f8ebf990049ce887
:104d7000f0a3e9800690041be4f0a3f074016e90a8
:104d800004117007e4f0a374088005740af0a3e42a
:104d9000f09004177401f090041574f4f07a0d7b10
:104da000041217bb024cfee5212434f582e43522bf
:104db000f583e81278102274f512236974fe122329
:104dc0000212259d74ff1222d1e9feeaffee7073f4
:104dd000a2afe433f523c2af900467e064f070043f
:104de000a3e0640370171272bf4009759403e59441
:104df000a2e250fae5e170fc75e14280309003fade
:104e0000e0640170281242d160160592a3a3a3a307
:104e1000a3a3a3a3e0f91217f7900407e4f0a3f00b
:104e20009003f874fff07af07b031217b59003fa41
:104e3000e4f0e523a2e092af9003f8124edbf460b9
:104e40000c80f59003f8e0f874f868701a79007433
:104e5000011222e78532828533831225a57402125e
:104e600022e77f0302244174ff686004793a80dfff
:104e70009003fbe4f0906009f0eb9003f96005e02b
:104e8000d2e48003e0c2e4f0906014e0c2e2f0ef0c
:104e90006004e0d2e2f09003fce4f09003f9e05407
:104ea000b3f090600a124ed49003fd126901a31270
:104eb0004db29003f4124db29003f874f8124ec53f
:104ec0001217bb8088f09003fa7401f07af07b032c
:104ed0002290049a7401f0a3e4f0221259e0e02237
:104ee000c082c083e95392fe90619a700e7433f0d1
:104ef000a37455f09061a0743a8003125395801ffb
:104f0000c082c083e9c3940f4002790ee9c454f013
:104f1000f85392fe906186e0540f488002f0a3f0af
:104f2000d083d08202112974f6122369e9ffc39459
:104f30002040027f1fe5a8fec2af8f2175220078b6
:104f4000211225b1eafcebfd7a257b04121deb74de
:104f5000021222e7ef900444f0eea2e7a2e792af3c
:104f600002793374f6122369e9ffc3942040027f6b
:104f70001fe5a8fec2af8f2175220078211225b14e
:104f8000eafcebfd7a457b04121deb74021222e76a
:104f9000ef90046480c274f412236974fe12230239
:104fa00012259d749f1222d1e9fee5c7f5219003d9
:104fb00069e0f5c7900368e0a2e0401ae0d2e0f0b3
:104fc00005929008f51225c47b0a7a007900121a1e
:104fd0006174041222e774ff6e70069004d4e080be
:104fe00001ee853282853383f07523e775240078de
:104ff000231225b17c007d007af07b03121df17431
:10500000021222e7853282853383e09004d4f07562
:10501000236678231225b17c007d007a007b601224
:105020001df174021222e7900419e4f0a37402f057
:105030009004187407f090041574fff09004017444
:105040004b124ed69003f47432124ed69003f9f000
:105050009003f67404124ed69004137405124ed6c3
:1050600075232578231225b17c007d007a727b049c
:10507000121df174021222e779017c357dff7ab4aa
:105080007b041214199004b4e054f860037405f022
:1050900075230478231225b17cff7d007ac27b043e
:1050a000121df174021222e79004c6741ff09004de
:1050b0006ee4f0a3f0900407f0a3f074ff6e6011ab
:1050c000ee75f0e6a4faabf012132f9004651269a6
:1050d000609004651278059004d5e41253b48018ea
:1050e000e58424e6f8e43585f9858482858583e8be
:1050f000f0a3e91253a2e004f0e0fa1265d0ee2426
:10510000fff8e434fff9c3ea98e499a2d265d033fa
:1051100040ce858482858583e4f0a31253a2900457
:105120000de4f0a3f090041574f4f09003f0e41291
:10513000609f79107cc7fd740112235712141975f2
:10514000230678231225b17c0e7d78740312235731
:10515000121deb74021222e775231078231225b179
:105160007c967d08741312233baa82ab83121deb3d
:1051700074021222e77810740112233be582125f59
:10518000563583f583e064bff008e8c3942040e718
:10519000740112234f8823892478231225b17403c4
:1051a00012235f741312233baa82ab831212f97489
:1051b000021222e779107cd77dff741112233baadb
:1051c00082ab8312141975231075240078231225dd
:1051d000b1741312233bac82ad83740312235712b4
:1051e0001de574021222e78b24ea45247005800c29
:1051f0001217fdeeff74ff2f1e0470f4121a4912ed
:1052000018699061c67401f09061807440f09061fb
:10521000917448f09061bc7407f090619a125395b4
:10522000f090618674e1f0a37419f09061bce4f031
:10523000900368e0a2e7403879017c017dffaa3243
:10524000ab33121419853282853383e0c4540ff0d6
:10525000c3940f4003740ef0e0c454f0f0906186e4
:10526000e0540ff8853282853383e048906186f000
:1052700074ff6e7007906192e0d2e7f0906022e4d4
:10528000f0906009f043a90143b901759b00759145
:1052900000439a01c2a890f7f4e0a2e3500474e13d
:1052a000800274c09004d6f0906181e4f0a3748011
:1052b000124ed67940742112235f7a037b001218b4
:1052c000c3e9fb74ff6b60367a00802d74211223d2
:1052d0003be5822af584e43583f5858584828585de
:1052e00083a3e0c0e00592e0f87480125f56346159
:1052f000f583d0e00592f00a0aeac39b40ce12265d
:10530000631216591217cd9004c8e4f09004caf045
:105310009004c9f09004cbf0906002740ff090f705
:10532000f4e0a2e45004740580027402906003f07b
:10533000900467e4f0a3f090049ce054fdf0900426
:1053400016e4f079067cea7dff7a9e7b041214193c
:1053500075230675240078231225b17c007d007a20
:10536000aa7b04121df174021222e79004aa7401b0
:10537000f0121a85d2f090ff34e0a2e730f001b3ca
:105380004008a2e330f001b350031217798521c71a
:105390007461027815743ff0a3745af09061a074a0
:1053a0007f221253b4e00592a3a3a3a3a3a3a3a3b4
:1053b000f0059222f08532828533832274f612231f
:1053c00069e5a8fec2af7521067522007821122575
:1053d000b1eafcebfd7aa47b04121deb74021222ed
:1053e000e7024f5974f712236974fe122302122543
:1053f0009de975f0e6a4fcadf0900465e02cf58421
:10540000a3e03df585ea858482858583a3a3a3a3d4
:10541000a3a3a3a3a3f00592a3a3a3a3a3a3a3a3be
:10542000a3a3740af085328285338305920270e962
:1054300074f012236974fe12230212259d74ff1268
:1054400022d18a278b281259d93528f583e0547f39
:105450001267b0ae82af838a828b830592a3a3a327
:10546000a31259e0126abd8a828b83a3a3a3a3a3cc
:10547000ac82ad83ee240af525e43ff526ee241137
:10548000f521e43ff522853282853383e070030203
:1054900056981470030256431470030255b11470e9
:1054a000030257fb14700302590214700302595f80
:1054b000147003025966147003025710147003022b
:1054c000556614606614700302571a14700302576d
:1054d000561460091470030256e70259ac7523058f
:1054e00075240078231225b1ee243ffae43ffb1225
:1054f0001deb74021222e7852582852683e064076e
:105500007002e4f0852182852283e0d2e1f0a2e0fe
:10551000400dac27ad28eefaeffb1217df8007aa8b
:1055200027ab281218637b030259978525828526ad
:1055300083e064066003025714852182852283e09c
:10554000d2e2127061e4f0752108f522782112256b
:10555000b1aa23ab24121deb74021222e7aa27abd7
:10556000281218638046852182852283e0d2e2f0ea
:1055700075210875220078211225b1aa23ab2412c7
:105580001deb74021222e77901aa23ab24121689bb
:1055900078211225b578231225b17909ac27ad28d9
:1055a000eefaeffb12172574031222e77b0402596f
:1055b00097125a597409f0121863900498e0a2e007
:1055c00040030259d47900121a318b24ea2403f8db
:1055d000e43524f98e828f83a3a3124db2882189ea
:1055e00022900467e0f8a3e0f5838882a3a3a3a335
:1055f000e02521fea3e03522ff0a0a0aab2279301a
:10560000121a43eefaeffb7940121a437954121a38
:105610004fc3500c1217ebe5e170fc75e121801dc2
:10562000900368e0a2e04012aa21ab22121a3d903a
:1056300004b5122130125a6f80031217eb1218ffb3
:105640000259d4ee242012644fa2e092f090049c00
:10565000e0a2e0d2f130f101b382f0852582852607
:10566000835004740c80027402f0752107752200c7
:1056700078211225b1ee2457fae43ffb121deb749a
:10568000021222e7aa27ab28121863ee245c125af2
:105690008a603a125a4380358525828526837401b3
:1056a000f075210b75220078211225b1ee244cfaf9
:1056b000e43ffb121deb74021222e7aa27ab28126b
:1056c0001863ee2455125a8a6003125a43e5a8f56e
:1056d00021c2af7901eefaeffb1217c7e521a2e76d
:1056e000a2e792af0259d4125a59e064037021e440
:1056f000f0852182852283e054e7f07b078e828f3c
:1057000083a3a3a3a3a3a3a3a3e0fa7900123c85d8
:10571000aa27ab281218630259d4852182852283d7
:10572000e0d2e4f075230078231225b5e4f524785f
:10573000231225b1790bac27ad28eefaeffb121737
:105740002574031222e7852182852283e0c2e6f0d8
:10575000d2e3f00259d4852182852283e0d2e4127b
:105760006457852182852283e05005c2e7f080a03e
:10577000543ff075210078211225b5e4f5227821f7
:105780001225b1790bac27ad28eefaeffb121725e5
:1057900074031222e775210878211225b1125a34b8
:1057a000121deb74021222e775210478211225b133
:1057b000125a25121deb74021222e778211225b12c
:1057c000125a16121deb74021222e78525828526d5
:1057d000837403f075211678211225b5ee245ef549
:1057e00021e43ff52278211225b17403c0e012189c
:1057f0005deafcebfdd0e0f90259c88525828526db
:10580000837404f0ee242ef584e43ff58578007966
:105810007d1275d81271c912224689240592e0289a
:10582000f8a3e03524f9e824010850010912704575
:10583000e80592124db375231675240078231225be
:10584000b1ee245efae43ffb121deb74021222e774
:105850007908ee2474fae43ffb121a8b7904ee24e3
:105860007cfae43ffb121a8b75230878231225b1ca
:10587000125a34121deb74021222e778231225b15a
:10588000125a07121deb74021222e77523047823c3
:105890001225b1125a25121deb74021222e7782349
:1058a0001225b1125a16121deb74021222e7782348
:1058b0001225b11259f8121deb74021222e7782357
:1058c0001225b11259e9121deb74021222e785214b
:1058d00082852283e04418f075210c78211225b5c9
:1058e000ee2474f521e43ff52278211225b17904e4
:1058f000ac27ad28eefaeffb12172574031222e74e
:105900008060852182852283e0d2e4f075210c75c8
:10591000220078211225b1ee2474fae43ffb121d17
:10592000eb74021222e775210878211225b1125a70
:1059300007121deb74021222e7752104782112254b
:10594000b11259f8121deb74021222e778211225c8
:10595000b11259e9121deb74021222e7025710121c
:1059600018637b068031121863900498e0a2e0501f
:10597000118e828f83a3a3a3a3a3a3a3a3e0f912f1
:105980001749852182852283e054e7127061740be8
:10599000126457403f7b078e828f83a3a3a3a3a3e8
:1059a000a3a3a3e0fa7900123c8580287521017831
:1059b000211225b5740112234f88218922782112e2
:1059c00025b17907ac27ad28eefaeffb1217257445
:1059d000031222e77401026e96ea2424f582e4227f
:1059e000e0853282853383f022ee247cfce43ffda7
:1059f000ee24aafae43ffb22ee247cfce43ffdee19
:105a000024bafae43ffb22ee2474fce43ffdee24ca
:105a100098fae43ffb22ee2470fce43ffdee24a65e
:105a2000fae43ffb22ee2470fce43ffdee24b6fadc
:105a3000e43ffb22ee2468fce43ffdee2490fae410
:105a40003ffb228e828f83a3a3a3a3a3a3a3a3a31d
:105a50007428127061740af0228c828d83e08e8229
:105a60008f83a3a3a3a3a3a3a3a3a312706122e57f
:105a7000a8f8c2af9004e8e0c2e0125a7e22f075a6
:105a80003400e8a2e7a2e792af22f584e43ff5856f
:105a90001272a51269050592e0c398f8a3e099f97e
:105aa000ee125aae0592e028a3e039548022242059
:105ab000f582e43ff5832274f712236974fe122302
:105ac0000212259deafeebffa2afe433f521c2af3f
:105ad000125be6eefceffd125bc712164d125bd1b6
:105ae000700988828983eef0a3eff07901aa84ab74
:105af000851217c7e521a2e092af853282853383f4
:105b00000270e974f71223691259d93bf583e05406
:105b10007ffe125b2a243dfae439fb12164d7b0509
:105b2000eefa7900123c850270f1eafcebfdee75ad
:105b3000f0e6a4f8a9f0900465125b3d22126e6fa6
:105b400039f9e82274f712236974fe122302122530
:105b50009deafeebffee4f60618e828f83a3a3e090
:105b600070051218638053125be6a2afe433f5218f
:105b7000c2af125bbd125cab402ca2e3eefceffdaa
:105b8000401f125bc712164d125bd17009888289c3
:105b900083eef0a3eff07901aa84ab851217c780da
:105ba0001312164d800eeefceffd12164daa84abbb
:105bb00085121317e521a2e092af025afae5842478
:105bc0003bfae43585fb22e5842439fae43585fb8c
:105bd00022e5842437f8e43585f988828983e0fa60
:105be000a3e0fbea4b22125f3ce0547f1265d42213
:105bf00074f412236974fe12230212259d8a848b89
:105c000085ecfeedffee4f7003025ca88584828573
:105c10008583a3a3a3a3a3a3a3a3e0c0e0125f383b
:105c2000d0e0125f4d7403f0741012233be0f523b3
:105c3000740125238e828f83a3a3125f4da3e9f005
:105c4000e523601f75240078231225b174101223f8
:105c50003b125cb1ee2405fae43ffb121deb74022b
:105c60001222e7a2afe433f521c2af125cabeefc27
:105c7000effde584500f125bbf121653aa84ab856b
:105c8000121317801d125bc912164d125bd17009d9
:105c900088828983eef0a3eff07901aa84ab8512a4
:105ca00017c7e521a2e092af02781812653aa2e781
:105cb00022e0fca3e0fd2274f012236974fe12239b
:105cc0000212259deafeebff8e848f850592a3a329
:105cd000e5d914f0e5d98e828f830592a3a3a3f0b2
:105ce0000592e0f8c394264009121863121b6f0254
:105cf0005d898e828f830592a3a3a3e0a2e5502540
:105d0000e8c39406401f7800e5d9c0e074cd125f67
:105d1000563404f583d0e0f008e8c3940640e90562
:105d200092e024faf07800800e125f563ff583a3cc
:105d3000a3a3a3d0e0f0088584828585835392fed7
:105d4000e0f9e8c399e5d9c0e0ee40dd2425f5820d
:105d5000e43ff583d0e0f0ee2426125f44e5d90558
:105d600092f0f8a2e74003025ed974035824250597
:105d7000929004d3f00592e054fcf0240c700302de
:105d80005f3124fc600a1218637a007b00025f35e1
:105d900005929003f9e0a2e44003025f31906009ac
:105da000e0f8906022e048f5267522007521018e0a
:105db000828f83a3a3a3e0f8744058f52890602352
:105dc000e0f527740f58f52574046525600ee5a8e5
:105dd000f8c2af9003f9e0c2e61267a7e5265521a5
:105de0006031e5286007852182a88280027800e57d
:105df00027552168701d7523067524007823122508
:105e0000b112481f121de574021222e78b24ea45e5
:105e100024600fe521c333f5210522e522c3940850
:105e200040ba906014e0a2e274086522500f70033b
:105e3000025f31906009e04521f0025f31603690e9
:105e40006009e055217013e04521f0e525607a7482
:105e50000665256003025f31806f7404652570124a
:105e60009003f9e0a2e6500ae5a8f8c2afe0c2e666
:105e70008062025f1474ff65267003025f31752132
:105e8000017522008008e521c333f5210522e526ae
:105e9000552170f275230675240078231225b1125e
:105ea000481f121deb74021222e7e521f4f89060fe
:105eb00023e058125f4de0a2e65007906023e045d2
:105ec00021f0906009e04521f0e5a8f8c2af900309
:105ed000f9e0d2e61267a78058748048fb125f3859
:105ee000eb0592f0547f1265d0e5842411f8e43577
:105ef00085f9888489858e828f83a3a3a3e05403c8
:105f0000640360190592e0a2e450127a3d747f5b4d
:105f1000f9121707eefaeffb121863801043920193
:105f2000e0a2e6500cc2e4f0effb12131d7e007fee
:105f300000eefaeffb02496f125f3c22ee1259dad3
:105f40003ff58322f8e43ff98884898522f08e8228
:105f50008f83a3a3a32228f582e42274f21223697b
:105f600074fe12230212259d1277fc9004cae014dd
:105f7000f0906060e0c0e0126368d0e0f0e5d9fb2b
:105f8000e5d9f8ebc394274006121b6f0260971205
:105f90006386e8a2e6e05004d2e08002c2e0f07a34
:105fa00000e5d9c0e01263b2d0e0f00aeac394067b
:105fb00040ef74fb2bf88002e5d974ff28180470b9
:105fc000f790600ee0f525a3e0f5268e848f850519
:105fd00092a3a37910121a31ea2525f8eb3526f998
:105fe000e82404500109858482858583124db3908d
:105ff000046e8004888289831270da6047888289ff
:1060000083a3a3a3a3a3a3a3a3e0a2e740e685845d
:1060100082858583e0a2e092f088828983a3a3e051
:10602000a2e020f001b3401c900368e0a2e00592da
:10603000e0400924fff0a3e034ff80072401f0a32f
:10604000e03400f08e828f835392fea3a3a3a3a318
:10605000a37404124ed690040712609f9003fae4d2
:10606000f0ee12635f74031260a98e828f83a3a384
:10607000a3a3a3a3a3a3a3f01214bb7b018e828fbf
:1060800083a3a3a3a3a3a3a3a3e0fa7900123c854f
:10609000eefaeffb1238a6853282853383801af040
:1060a000a3f09003f874fff022f01275b4e4f0222c
:1060b0008532828533835392fe1225a57402122203
